S0220000537461722D64656C746120526576657273696E67204D6F746F722E737265632B
S11300000C942A000C943C000C943C000C943C008E
S11300100C943C000C943C000C943C000C943C006C
S11300200C943C000C943C000C943C000C943C005C
S11300300C943C000C943C000C943C000C943C004C
S11300400C943C000C943C000C943C000C943C003C
S11300500C943C0011241FBECFE5D8E0DEBFCDBF19
S113006020E0A0E6B0E001C01D92A336B207E1F79C
S11300700E945F010C946E020C94000060E080E02A
S11300800E94A50061E080E00E94A50062E080E09B
S11300900E94A50060E081E00E94E40061E081E04C
S11300A00E94E40062E081E00E94E40063E081E0F9
S11300B00E94E40008950E94B400809362000E94AC
S11300C03A018093610090916200911106C0811100
S11300D004C081E08093600017C0913031F4811135
S11300E004C082E0809360000FC0923031F481300C
S11300F021F483E08093600007C0923029F48230B9
S113010019F484E08093600080916000823071F083
S113011018F4813031F00895833069F0843081F02F
S113012008950E94E8001092600008950E94FF0064
S11301301092600008950E941601109260000895C4
S11301400E942801109260000895CF93DF93C82F76
S1130150D62F40E00E94640141E06D2F8C2F0E9455
S1130160A001DF91CF910895CF93DF9360E080E009
S11301700E94DC01C82F61E080E00E94DC01D82FDE
S113018062E080E00E94DC01C11104C0D13011F4AE
S1130190813071F0C13021F4D11102C0813051F0AD
S11301A0C13051F4D13051F4882351F083E009C0B7
S11301B080E007C081E005C083E003C083E001C0A4
S11301C082E0DF91CF91089541E00E946401089597
S11301D041E060E081E00E94A00141E062E081E052
S11301E00E94A0010E94F60140E062E081E00E94CA
S11301F0A00141E063E081E00E94A001089541E094
S113020061E081E00E94A00141E062E081E00E949F
S1130210A0010E94F60140E062E081E00E94A0019A
S113022041E063E081E00E94A001089540E060E0C5
S113023081E00E94A00140E062E081E00E94A00110
S113024040E063E081E00E94A0010E941E02089544
S113025040E061E081E00E94A00140E062E081E0D2
S11302600E94A00140E063E081E00E94A0010E949E
S113027046020895CF93DF9360E081E00E94DC01A1
S1130280C82F61E081E00E94DC01C11102C0882313
S113029049F0C13049F0882349F0CC2349F081303A
S11302A051F408C0D0E007C0D1E005C0D1E003C0DC
S11302B0D2E001C0D2E08D2FDF91CF9108950E944A
S11302C03E000E945B00FDCF4130D9F4882319F031
S11302D0813061F008952AB381E090E002C0880F74
S11302E0991F6A95E2F7822B8ABB089521B381E0B6
S11302F090E002C0880F991F6A95E2F7822B81BBB8
S1130300089541111CC0882319F0813069F00895C3
S11303102AB381E090E002C0880F991F6A95E2F742
S1130320809582238ABB089521B381E090E002C0C6
S1130330880F991F6A95E2F78095822381BB0895FF
S11303404130D9F4882319F0813061F008952BB33A
S113035081E090E002C0880F991F6A95E2F7822B32
S11303608BBB089522B381E090E002C0880F991FEF
S11303706A95E2F7822B82BB089541111CC0882341
S113038019F0813069F008952BB381E090E002C048
S1130390880F991F6A95E2F7809582238BBB089595
S11303A022B381E090E002C0880F991F6A95E2F7BA
S11303B08095822382BB0895882319F0813059F0F7
S11303C013C089B390E002C0959587956A95E2F7CA
S11303D0982F917009C080B390E002C095958795DD
S11303E06A95E2F7982F9170892F089583B7877FD4
S11303F083BF83B78F7B83BF8BE082BF83B781606A
S113040083BF83B78D7F83BF83B7846083BF90E04E
S113041009C008B600FC02C0CA99FBCF88B7816046
S113042088BF9F5F9431A8F383B78E7F83BF83B760
S11304308D7F83BF83B78B7F83BF089583B7877F07
S113044083BF83B78F7B83BF8BE082BF83B7816019
S113045083BF83B78D7F83BF83B7846083BF90E0FE
S113046009C008B600FC02C0C899FBCF88B78160F8
S113047088BF9F5F9431A8F383B78E7F83BF83B710
S11304808D7F83BF83B78B7F83BF089583B7877FB7
S113049083BF83B78F7B83BF8BE082BF83B78160C9
S11304A083BF83B78D7F83BF83B7846083BF90E0AE
S11304B009C008B600FC02C0C999FBCF88B78160A7
S11304C088BF9F5F9431A8F383B78E7F83BF83B7C0
S11304D08D7F83BF83B78B7F83BF0895F894FFCF4D
S9030000FC
